:020000040800F2
:10000000F061002059020008AF300008AD2A000856
:10001000AD3000082B090008B13A000800000000CC
:100020000000000000000000000000009D0100082A
:10003000150D000800000000F10100087F310008E4
:1000400073020008730200087302000873020008BC
:1000500073020008730200087302000873020008AC
:10006000730200087302000873020008730200089C
:10007000E509000873020008F1090008730200088E
:10008000FD0900087302000873020008390900081E
:100090002D090008730200087302000873020008AB
:1000A0007302000879320008730200087302000826
:1000B000730200087302000873020008730200084C
:1000C000730200087302000873020008730200083C
:1000D00073020008513A0008693A0008813A0008A2
:1000E000730200087302000873020008730200081C
:1000F000730200087302000873020008730200080C
:1001000073020008730200087302000873020008FB
:1001100073020008730200087302000873020008EB
:1001200073020008090A0008150A00087302000893
:1001300073020008730200087302000851090008E6
:1001400045090008730200087302000873020008E2
:10015000730200087302000873020008993A00084D
:10016000730200087302000873020008730200089B
:100170007302000873020008730200080000000008
:100180007302000873020008DFF80CD000F010FBC7
:10019000004800470D5E0008F06100202B4B1968F5
:1001A0000868B0E8F04F80F30988BFF36F8F4FF015
:1001B000000080F3118870470000000006480068C6
:1001C000006880F3088862B661B6BFF34F8FBFF353
:1001D0006F8F00DF00BF00BF08ED00E0DFF80C000C
:1001E000016841F470010160704700BF88ED00E0D4
:1001F000EFF30980BFF36F8F144B1A681EF0100FD6
:1002000008BF20ED108A20E9F04F106008B44FF0CD
:10021000500080F31188BFF34F8FBFF36F8F07F04B
:10022000D3FB4FF0000080F3118808BC1968086800
:10023000B0E8F04F1EF0100F08BFB0EC108A80F34A
:100240000988BFF36F8F704700BF00BF0401002013
:10025000EFF30580704700000648804706480047D6
:10026000FEE7FEE7FEE7FEE7FEE7FEE7FEE7FEE766
:10027000FEE7FEE725320008890100082DE9F05F5E
:100280000546002092469B46884606468146402405
:100290001BE0284641464746224600F0D2F9534625
:1002A0005A46C01A914110D311461846224600F012
:1002B000B9F92D1A67EB01084F46224601200021AB
:1002C00000F0B0F917EB00094E41201EA4F1010423
:1002D000DFDC484631462A464346BDE8F09F40EA07
:1002E00001039B0703D009E008C9121F08C0042AB4
:1002F000FAD203E011F8013B00F8013B521EF9D29B
:100300007047D2B201E000F8012B491EFBD27047C2
:100310000022F6E710B513460A4604461946FFF7D1
:10032000F0FF204610BD2DE9FE4F804681EA030014
:10033000C00F0C46009021F0004123F00045B8EBBF
:100340000200A94105D24046214690461C460B4674
:10035000024623F00040104347D0270DC7F30A00A0
:10036000C3F30A510290401A019040286BDAC3F39C
:10037000130040F4801B0098924620B10023D2EB7A
:10038000030A63EB0B0B01985946C0F1400250463B
:1003900000F048F906460D4650465946019A00F0CD
:1003A00060F910EB08006141002487EA115284EAE9
:1003B000E7731A4340D0009A62B3019A012A4FEAC8
:1003C000075215DC001B61EB02014FF0004202EA0C
:1003D0000752CDE90042001C41F5801132462B4600
:1003E00000F097F903B0BDE8F08F40462146F9E7E9
:1003F000001B61EB0201001C41F5801300185B41FA
:100400002018A2F5001747EB030140EAD570B61992
:100410006D4111E06D084FEA360645EAC0754FEAB6
:100420000752001B61EB0201001C41F580114908D5
:100430004FEA30000019514132462B4603B0BDE867
:10044000F04F00F057B90098012240000023D0EB94
:10045000020263EBE073009821464FEAE074B8EBC8
:10046000000061EB0401E9E783F000435BE781F002
:10047000004158E72DE9FE4F81EA030404F00044EF
:1004800021F0004100944FF0000B23F0004350EAAC
:1004900001045ED052EA03045BD0C3F30A54C1F3F3
:1004A0000A552C44A4F2F3340194A0FB0254C1F386
:1004B000130141F48011C3F3130343F4801301FBD0
:1004C000024400FB034E840A970A44EA815447EA37
:1004D0008357A4FB076802958D0A05FB07854FEA41
:1004E000932C04FB0C542705029D4FEA065847EA5B
:1004F0001637B5EB08056EEB070C870E920E47EA30
:10050000811742EA8312A7FB0201B6EB0B0164EBF1
:1005100000042B0D43EA0C335E1844EB1C50DA4602
:100520005146E7FB0201C5F313044FEA0B3343EADC
:1005300014534FEA0432019C43EA0603A4F10C046D
:100540000294009CCDE900B400F0E3F803B0BDE8EC
:10055000F08F00200146F9E70EB5C10F80EAE07088
:100560000844CA07002140F233438DE80E000A46D2
:100570000B4600F0CEF803B000BD0EB540F233419B
:1005800002910021CDE900110A460B4600F0C1F8A6
:1005900003B000BDC1F30A5210B5C1F3130140F21C
:1005A000FF3341F480119A4201DA002010BD40F27D
:1005B00033439A42A2F2334203DC524200F041F844
:1005C00010BD904010BD00F0004230F000400AD055
:1005D000C10D01F56071C0F3160042EA0151C20875
:1005E00040071143704700200146704701F0004367
:1005F00030B421F0004150EA010206D00A0DA2F504
:100600006072C1F31301002A02DC30BC0020704785
:10061000440F44EAC104C100E01830BC00EBC250F2
:1006200000F031B8202A04DB203A00FA02F1002061
:1006300070479140C2F1200320FA03F31943904020
:100640007047202A04DB203A21FA02F0002170478B
:1006500021FA02F3D040C2F120029140084319462A
:100660007047202A06DBCB17203A41FA02F043EA12
:10067000E07306E041FA02F3D040C2F1200291405B
:100680000843194670470029A8BF7047401C49001D
:1006900008BF20F00100704710B4B0FA80FC00FAE7
:1006A0000CF050EA010404BF10BC704749B1CCF112
:1006B000200421FA04F411FA0CF118BF012121439E
:1006C0000843A3EB0C01CB1D4FEA00614FEA102059
:1006D00042BF002010BC704700EBC35010440029FB
:1006E000A4BF10BC7047401C490008BF20F00100A7
:1006F00010BC704710B5141E73F1000408DA401CDA
:1007000041F1000192185B411A4301D120F0010030
:1007100010BD2DE9F04D92469B4611B1B1FA81F220
:1007200002E0B0FA80F220329046FFF77BFF0446E9
:100730000F4640EA0A0041EA0B0153465A46084375
:1007400013D0114653EA010019D0C8F140025046B7
:10075000FFF777FF05460E46504659464246FFF7DB
:1007600061FF084305D0012004E020463946BDE87A
:10077000F08D0020054346EAE0762C4337430A9883
:100780006305E40AA0EB08000022FD0A44EA47548E
:100790000A3002D500200146E9E701051019694138
:1007A000DDE9084500196941BDE8F04DA2E7000008
:1007B000064C074D06E0E06840F0010394E80700AE
:1007C00098471034AC42F6D3FFF7E2FCAC90000837
:1007D000CC9000082DE9F04D81EA030404F0004BB1
:1007E00021F0004514464FF0000A23F0004150EA82
:1007F000050220D054EA01021DD0C5F30A57024673
:10080000C5F31303C1F31300C1F30A5640F4801576
:1008100043F48013A7EB0608101BD64608F2FD38F8
:1008200073EB050002D308F1010801E092185B4167
:10083000B8F1000F03DA00200146BDE8F08D00207A
:100840004FF48011064684460EE0171B73EB050734
:1008500005D3121B63EB050306434CEA010C490860
:100860004FEA300092185B4150EA0107EDD152EA9D
:10087000030012D082EA040083EA0501084305D090
:10088000101BAB4106D20122002306E000224FF0EC
:10089000004302E06FF0010253101AEB06004CEB2C
:1008A000085110EB0A0041EB0B01BDE8F04DFFF7DA
:1008B00021BF70B5C1F30A5201F000450024C1F315
:1008C000130140F2FF3341F480119A4201DA002013
:1008D00070BD40F233439A42A2F2334203DC5242EB
:1008E000FFF7AFFE00E090402C43F1D0404270BDD6
:1008F00030B58C1810F8012B12F00F0301D110F84D
:10090000013B120906D110F8012B03E010F8015B3E
:1009100001F8015B5B1EF9D101E001F8013B521EB9
:10092000FBD1A142E6D3002030BDFEE7014800F034
:1009300063BB000058010020014800F05DBB0000CF
:1009400058010020014800F057BB00008001002042
:10095000014800F051BB00008001002010B50421C7
:10096000054801F0EBFD4FF4FA7001078863034975
:100970000120087010BD0000A80100206C000020BC
:10098000F0B514481649012390F800C01348124FDF
:100990009E0705784A790024BCF1050F03D0BCF10D
:1009A000060F0ED109E07F7A032F09D14DB10470F3
:1009B0000AB14C7109E04B7104E0FF7CFF07F5D1EF
:1009C000037012B14FF4FA7001E040F2DC50B063F2
:1009D000F0BD000090000020F81D00206C000020F9
:1009E0004C110020014800F0D3BD00001C04002081
:1009F000014800F0CDBD00007C040020014800F05B
:100A0000C7BD0000BC030020014800F0C1BD0000CC
:100A1000DC040020014800F0BBBD00005C030020A6
:100A20002DE9F04F85680024099E802D15D08C4D4E
:100A3000C5638C4D456490F83450012D12D00125CA
:100A400080F8345090F83550012D0DD0022400214B
:100A500080F834102046BDE8F08F4FF48071416576
:100A60000120F8E70220F6E7022580F8355000253E
:100A7000456505682F6847F480272F6005682B615E
:100A800003685E608368402B03682AD09960016820
:100A9000CA60764D744E754FDFF8CC81DFF8C8918F
:100AA000DFF8C8A1EA14DFF8C0B1DFF8C0E10168DF
:100AB000483E6037930209F118090AF1180AABF1B0
:100AC000300B0EF1780E4FF0006C41452DD9A94244
:100AD00005D0B14203D0B94201D0494505D1202209
:100AE00020E09A600268D160D3E751451AD0594599
:100AF00018D0714516D05C4D3035A94212D05B4AF2
:100B0000303291420BD0584A183A914207D0574A96
:100B10009032914203D0544A4832914201D11A4650
:100B200000E0624650494C392EE0DFF8408108F180
:100B3000A80841452AD9A94205D0B14203D0B942FB
:100B400001D0494501D120221CE051451AD0594518
:100B500018D0714516D0444D3035A94212D0434AC1
:100B6000303291420BD0404A183A914207D03F4A66
:100B70009032914203D03C4A4832914201D11A4608
:100B800000E06246384950390A605AE0DFF8DC80FC
:100B900008F1480841452AD9A94205D0B14203D0FD
:100BA000B94201D0494501D120221CE051451AD05B
:100BB000594518D0714516D02B4D3035A94212D069
:100BC0002A4A303291420BD0274A183A914207D034
:100BD000264A9032914203D0234A4832914201D1B1
:100BE0001A4600E0624621491039CA6029E0A9424C
:100BF00005D0B14203D0B94201D0494501D12022EC
:100C00001CE051451AD0594518D0714516D0164DE3
:100C10003035A94212D0154A303291420BD0124AD7
:100C2000183A914207D0114A9032914203D00E4AAD
:100C30004832914201D11A4600E062460B49103910
:100C40008A6001680A6842F010020A6001680A6856
:100C500042F001020A60012180F83510F7E6000039
:100C60006551000867510008586402401060024056
:100C700001681823CAB2103AB2FBF3F2054B6FF3C6
:100C80000901032A9B5CC36500D9091D81650846DB
:100C900070470000408F000810B5014600208B69A6
:100CA0008A6A4FF0C07453B1B3F5005F15D072B1CA
:100CB000012A0CD0022A0AD0032A09D104E01AB171
:100CC000012A06D0022A03D1C96AC90100D5012030
:100CD00010BDC96AA142FAD010BD002AF7D0012A7E
:100CE000F2D0022AF3D0032AF3D010BD30B5046845
:100CF000256825F480252560046863608368402B9F
:100D0000036803D099600068C26030BD9A600068D3
:100D1000C16030BD7047000070B500F5487000EE4E
:100D2000100A134C01F54871B8EE400A04F114059D
:100D3000204684ED020A00EE101AB8EE400A85ED56
:100D4000020A02F0D1F9284602F0CEF995ED010A27
:100D50000849BCEEC00A10EE100A086094ED010AC2
:100D6000091DBCEEC00A10EE100A086070BD00003C
:100D7000F00F00203C04004010B508210E4801F09F
:100D8000DDFB0C210C4801F0D9FB0C494FF44870F5
:100D90000860091D08600B48DFED090AB6EE000A7D
:100DA000C0ED020AC0ED010A80ED000A1430C0ED6A
:100DB000020A80EC020A10BDE40100203C0400405D
:100DC00000004844F00F002090F82020012A09D0AC
:100DD00090F82020022A05D0416A41F48021416226
:100DE00001207047006842690A4342610020704751
:100DF00010B590F82020012A09D090F82020022A6E
:100E000005D0416A41F480214162012010BD3A4879
:100E1000D0F8002242F00102C0F80022D0F80022EF
:100E200022F47C52C0F80022D0F800224B6A42EA39
:100E30000322C0F800220B7D01229A40D0F81C3218
:100E40009343C0F81C32CB69B3B9D0F80C3293434A
:100E5000C0F80C328C894B6864F31F434C6900EB7B
:100E6000C404C4F840320C890B6864F31F434C6916
:100E700000EBC404C4F84432CB69012B16D1D0F87E
:100E80000C321343C0F80C320C884B6864F31F43D8
:100E90004C6900EBC404C4F840320C89CB6864F39D
:100EA0001F434C6900EBC404C4F844328B69002B27
:100EB000D0F804320ED01343C0F804320B69002B73
:100EC000D0F8143208D01343C0F81432096A01294B
:100ED00004D008E09343EFE79343F5E7D0F81C1202
:100EE0001143C0F81C12D0F8001221F00101C0F823
:100EF0000012002010BD000000640040704730B5B3
:100F000090F82040012C07D090F82040022C03D00C
:100F1000416A41F4802109E011B1012909D00CE0B6
:100F20000468E46807E0416A41F40011416201206D
:100F300030BD04682469A407F5D04FF4D87405685F
:100F400004EB01142D5915F00405956005682D5921
:100F500042D0ED08556005682C59C4F34004D460B4
:100F60004FF4DA74056804EB01142D5905F00F05F0
:100F7000156105682D59C5F30725956105682C593C
:100F8000240C54614FF4DC72046802EB0112A45883
:100F90001C700468A458240A5C700468A458240CCB
:100FA0009C700468A258120EDA704FF4DE72046866
:100FB00002EB0112A4581C710468A458240A5C7145
:100FC0000468A458240C9C710468A258120EDA71AB
:100FD00029B1012909D00DE06D0D1560BBE700684E
:100FE000C16841F02001C16004E00068016941F07E
:100FF00020010161002030BD2DE9F05F0546006849
:1010000000244669D0F804908768D0F80CB0D0F876
:1010100010A0D0F81880F10748D0F90714D00121AA
:101020008160B80703D5284600F099FA0CE07807EC
:1010300002D54FF4006407E0380702D54FF480541E
:1010400002E0284600F08AFAF80516D529684FF420
:1010500080708860B80503D5284600F082FA0CE05D
:10106000780502D544F4005407E0380502D544F46D
:10107000804402E0284600F073FAF80316D5296888
:101080004FF480308860B80303D5284600F06BFA2F
:101090000CE0780302D544F4004407E0380302D59D
:1010A00044F4803402E0284600F05CFA300707D5AB
:1010B0005FEACB6004D52968102044F40074C8604E
:1010C00070074FF0080707D55FEA0B7004D5286852
:1010D000C760284600F08CF9B00706D52868C068BC
:1010E000800702D0284600F085F9700607D55FEA30
:1010F000CA6004D52968102044F480640861B006F1
:1011000007D55FEA0A7004D528680761284600F011
:10111000F5F9F00606D528680069800702D0284650
:1011200000F0EDF9B00308D55FEAC96005D529687C
:1011300010204860284600F0E3F9F00307D55FEA85
:10114000097004D528684760284600F00DFA30047D
:1011500046D55FEA497040D5F00504D55FEAC8700E
:1011600001D044F00104B00504D55FEA887001D5D0
:1011700044F00204700504D55FEA487001D544F0DC
:101180000404300529D518F0700F26D008F070003F
:10119000402815D006DC102809D020280AD0302895
:1011A00016D10AE050280ED0602811D10EE044F08C
:1011B00008040DE044F010040AE044F0200407E0C5
:1011C00044F0400404E044F0800401E044F48074FE
:1011D0002868816921F070018161296804204860D4
:1011E000002C05D0686A204368622846FFF786FE17
:1011F000BDE8F09F70B5040003D094F8200010B152
:1012000004E0012070BD204600F082F820680168EB
:1012100021F00201016000F00DFC0546052604E006
:1012200000F008FC401B0A2811D82068406880079D
:10123000F6D42068016841F00101016000F0FAFB7A
:1012400005460BE000F0F6FB401B0A2806D9606A51
:1012500040F40030606284F82060D2E72068406883
:10126000C007EFD0207E0128206801683DD021F022
:1012700080010160607E01282068016838D021F07B
:1012800040010160A07E01282068016833D021F070
:1012900020010160E07E0128206801682ED041F025
:1012A00010010160207F01282068016829D021F009
:1012B00008010160607F01282068016824D021F0C6
:1012C00004010160D4E902010843D4E90412114386
:1012D00008436168491E08432168C86100206062B4
:1012E000012084F82000002070BD41F08001C0E79B
:1012F00041F04001C5E741F02001CAE721F01001AB
:10130000CFE741F00801D4E741F00401D9E700003C
:10131000F0B5324B0768DFF8C0C01868032202241A
:1013200009252F490026401C87B0674521D1186048
:10133000012807D1086840F000700860086800F0D4
:10134000007005908DE85400CDE9032569462548D5
:1013500000F08EFA00220521132000F01BFC132060
:1013600000F00CFC00220521142000F013FC1420D6
:101370002EE0DFF874C067452CD10F6847F0806716
:101380000F600F68012807F080670597186007D184
:10139000086840F000700860086800F00070059070
:1013A0004FF440508DE85100CDE9032569460F48C0
:1013B00000F05EFA002205213F2000F0EBFB3F2009
:1013C00000F0DCFB00220521402000F0E3FB402080
:1013D00000F0D4FB07B0F0BD006400400000002026
:1013E00040380240000C0240006800400004024007
:1013F000704700002DE9F04107463A4B3A4A002178
:10140000FFF77DFD3849374C40F207230868193C47
:10141000A0F2072298424ED00BDC344EA0F20120FD
:101420004FF00105062854D2DFE800F0181818180C
:101430002E35B2F5FE7F44D009DCFC2A32D0B2F55D
:10144000FD7F3ED0A2F58072FB3A42D139E0A2F591
:101450008072FD3A35D0012A3BD132E0C0B2207013
:10146000C0EB0011224800EB810081694A1C32293F
:101470002049826102D803F097FF01E003F074FE77
:1014800020783044857024E017483946903803F0BE
:101490006BFEB5711DE014483946CC3803F064FE8C
:1014A000F57116E00F4801884ABA13494A8140880D
:1014B00040BA08810DE00C483946543803F054FE18
:1014C00007E054F8192FA2606268E260096904F02D
:1014D00071F908480068416941F002014161BDE8C5
:1014E000F08100004900002034070020681100202E
:1014F0007805002058010020DC0F0020704770475D
:101500007047000070B5044690F82000012804D010
:10151000606A40F40020606218E0022084F8200035
:101520002068016821F00101016000F083FA05469E
:101530000EE000BF00F07EFA401B0A2808D9606A5E
:1015400040F400306062052084F82000012070BD66
:1015500020684068C007EDD1606270BD7047704779
:101560007047704770477047704790F835100229F0
:1015700003D08021416501207047052180F8351096
:101580000068016821F0010101600020704700003F
:101590002DE9F84304464FF00009CDF80090634868
:1015A0004FF41651A56D0068B0FBF1F72E6894F862
:1015B0005C10082000FA01F131420FD021680A685E
:1015C00052070BD50A6822F004020A6094F85C10F6
:1015D0008840A860606D40F00100606594F85C1080
:1015E0004FF0010808FA01F0304208D0216849693B
:1015F000090604D5A860606D40F00200606594F8AB
:101600005C1004208840304208D0216809688907AE
:1016100004D5A860606D40F00400606594F85C102B
:1016200010208840304218D021680968090714D575
:10163000A86020680168490304D50068000308D544
:10164000A16C07E00168C90503D4016821F0080115
:101650000160216C09B12046884794F85C10202075
:101660008840304231D021680968C9062DD5A8606C
:1016700094F8350005282068016806D0490347D54D
:10168000006800031DD4616C1CE021F016010160AC
:101690002068416921F080014161206C08B9A06C8B
:1016A00020B12068016821F00801016094F85C1005
:1016B0003F208840A86084F8349084F83580216DFC
:1016C0001FE0E16B09B120468847606D00282BD0F0
:1016D000606DC00714D0052084F8350020680168CB
:1016E00021F0010101600098401C0090B84203D82D
:1016F00020680068C007F6D184F8349084F83580FB
:10170000E16C002910D001B02046BDE8F043084745
:101710000168C905D5D4016821F01001016084F881
:10172000349084F83580CCE7BDE8F8832C000020A5
:101730002DE9F041044600F07DF906465CB1002534
:1017400084F83450022084F835002068016821F0C4
:10175000010101600DE00120BDE8F08100F06AF9AF
:10176000801B052805D920206065032084F83500FA
:10177000F2E720680068C007F0D1226811682048AD
:101780000140D4E901031843D4E903363343184335
:1017900063691843A3691843E3691843236A18432C
:1017A0000843616A042903D1D4E90B1319430843A0
:1017B000106020684069666A20F0070130460E43D9
:1017C000012704280CD1A06A0643E06A40B12046F4
:1017D000FFF762FA20B14020606584F83570BAE7FF
:1017E000206846612046FFF743FA94F85C203F21C9
:1017F00091408160656584F835700020ACE7000099
:101800003F8010F070B5044690F8340000250128A0
:101810000CD0012084F8340094F835600020012EAB
:1018200006D084F834000225284670BD022070BD21
:10183000022684F8356060652046FFF757FA206875
:10184000016841F001010160EEE7000070B5044657
:1018500000F0F0F80546601C02D00448007804440B
:1018600000F0E8F8401BA042FAD370BDD40000207D
:101870002DE9F84FDFF87CB100224FF001084FF05E
:10188000030A4FF00F090BF1040E00BF0B6808FAB2
:1018900002F42340A3426ED14D68022D01D0122DD7
:1018A0000ED1D50800EB850CDCF820505607F70E5A
:1018B00009FA07F6B5430E69BE402E43CCF8206006
:1018C000066855000F790AFA05FC07F0030726EAB7
:1018D0000C06AF40374307604E68012E05D0022E3C
:1018E00003D0112E01D0122E0ED18668CF6826EAC1
:1018F0000C06AF40374387604668A6430C79C4F3B3
:101900000014944034434460C6688C6826EA0C0690
:10191000AC403443C4604C68E40065D5364C25685F
:1019200045F480452560246822F0030504F48044D2
:101930000094324C2E19D6F8084895072F0F09FA53
:1019400007F5AC432E4DA84201D1002524E02D4DD2
:10195000A84201D101251FE02B4DA84201D102254B
:101960001AE02A4DA84201D1032515E0284DA842CE
:1019700002D1042510E037E0264DA84201D105250B
:101980000AE0254DA84201D1062505E0234DA842D5
:1019900001D1072500E00825BD402543C6F80858B9
:1019A000DBF800405D464E689C43F60300D51C43BF
:1019B0002C60DEF8004075464E689C43B60300D5A7
:1019C0001C432C600B4D08352C684E689C43F60276
:1019D00000D51C432C60074D0C352C684E689C4389
:1019E000B60200D51C432C60521C102AFFF44EAFE7
:1019F000BDE8F88F003C014044380240003001400F
:101A0000000002400004024000080240000C0240B6
:101A1000001002400014024000180240001C024066
:101A200042694A40426170470AB1816170470904C6
:101A3000FBE700000148806870470000D4000020E8
:101A4000024881680278114481607047D400002008
:101A50000B4810B5016841F400710160016841F460
:101A600080610160016841F480710160032000F031
:101A7000B1F8002000F006F800F03EF8002010BD9C
:101A8000003C024010B5014688B00022192000F049
:101A900081F8192000F072F813480024016841F41D
:101AA00000310160006805A900F400300690684626
:101AB00000F03AF900F06EF90C494000B0FBF1F18A
:101AC0000C480B4A491E026040F2E732C0E9032489
:101AD000C0E9011400F076FB10B1012008B010BD80
:101AE000044800F09FFBF9E74438024040420F00F1
:101AF000004401403C0500201F4808B5016841F43E
:101B000080410160006800F4804000901A48001F86
:101B1000016841F080510160006800F08050009041
:101B2000032000F057F8002211466FF00B0000F080
:101B300031F8002211466FF00A0000F02BF8002265
:101B400011466FF0090000F025F800221146501FE1
:101B500000F020F800221146101F00F01BF80022B0
:101B60000F21901E00F016F800220F21BDE808405A
:101B7000501E00F00FB800004438024000F01F0271
:101B8000012191404009800000F1E020C0F80011DF
:101B900070470000F0B40E4B1B680C46C3F30223E1
:101BA000C3F10705042D00D90425191D072901D209
:101BB000002300E0DB1E012606FA05F1491E214044
:101BC00099409E40761E16403143F0BC01F070BA39
:101BD0000CED00E0064900F0070208684FF6FF032D
:101BE000184040EA0220034A104308607047000092
:101BF0000CED00E00000FA052DE9F0470E46050067
:101C000065D0DFF81481D8F80000F7B200F00F00BB
:101C1000B04207D288F80070D8F8000000F00F003A
:101C2000B04254D128683D4C810712D5400703D5F6
:101C3000206840F4E05020602878000703D5206831
:101C400040F4604020602068A96820F0F00008435C
:101C500020602878C0072DD03049686808390128ED
:101C600012D0022813D0032811D00968890700294F
:101C70002DDA216821F0030101432160FFF7DAFE2C
:101C8000814641F2883A0EE009688903EFE7096866
:101C90008901ECE7FFF7CEFEA0EB0901514502D91F
:101CA0000320BDE8F0872068696800F00C00B0EB05
:101CB000810FEFD1D8F80010404601F00F01B1427A
:101CC00007D90770006800F00F00B04201D0012072
:101CD000E7E72878400705D52068E96820F4E05058
:101CE000084320602878000706D52068296920F479
:101CF000604040EAC100206000F05CF82168084ABA
:101D0000C1F30311515CC840064908600020FFF789
:101D1000B9FE0020C5E70000003C02400838024040
:101D2000288C00082C0000200F2202600C4A136847
:101D300003F003034360136803F0F0038360136848
:101D400003F4E053C36012684FF4E05303EAD20295
:101D500002610448006800F00F000860704700004E
:101D600008380240003C024001480068704700000B
:101D70002C0000200448054900680968044AC1F3A2
:101D80008221515CC84070472C0000200838024076
:101D9000388C00080448054900680968044AC1F302
:101DA0004231515CC84070472C0000200838024086
:101DB000388C0008154810B5006810F00C02144863
:101DC00013D04110042A0FD0082A0ED10F4C241F23
:101DD0002268236802F03F025B0207D52068C0F347
:101DE0008810A0FB010106E0084610BD2168C1F380
:101DF0008811A1FB00010023FEF740FA2168C1F31E
:101E00000141491C4900B0FBF1F010BD0838024007
:101E10000024F4002DE9F84F050076D02878DFF88B
:101E2000F8B2BE4CC00749D0DBF800105846C1F3E9
:101E30008101012908D00068C0F3810002280AD17D
:101E4000201D0068400206D52068800336D56868EA
:101E50000028E2D032E06868B0F5803F10D0B0F5DD
:101E6000A02F206810D020F480302060206820F45B
:101E7000802020606868A0B1FFF7DCFD06460CE01A
:101E8000206840F48030F4E740F480202060F7E7D9
:101E9000FFF7D0FD801B642873D820688003F7D536
:101EA0000CE0FFF7C7FD064605E000BFFFF7C2FDE7
:101EB000801B6428F0D820688003F7D42878DFF8E6
:101EC000608280074FF000093ED5DBF800105846CD
:101ED00011F00C0F09D00068C0F3810002280BD16B
:101EE0008D48001F0068400206D42068800715D581
:101EF000E868012809D111E0E868B8B10120C8F804
:101F00000000FFF797FD064605E002E1FFF792FDAE
:101F1000801B0228C0D820688007F7D5206829696F
:101F200020F0F80040EAC10020600DE0C8F8009001
:101F3000FFF780FD064604E0FFF77CFD801B0228CA
:101F40001FD820688007F7D42878000722D5724E62
:101F5000744869696C3671B101210160FFF76AFD4F
:101F6000074604E0FFF766FDC01B022809D8306869
:101F70008007F7D50EE0C0F80090FFF75BFD07463D
:101F800005E083E0FFF756FDC01B02287ED83068CD
:101F90008007F7D42878400768D5DFF87CA10027B0
:101FA0000AF1380ADAF80000C0000BD4DAF80010A1
:101FB00041F08051CAF80010DAF80000012700F063
:101FC00080500090584E3068C00510D4306840F4FE
:101FD00080703060FFF72EFD009005E0FFF72AFDCE
:101FE0000099401A022851D83068C005F6D54A4EEB
:101FF000A868683601280FD00528306810D020F076
:1020000001003060306820F004003060A868B8B18A
:10201000FFF710FD00900FE0306840F00100F4E79A
:1020200040F004003060F7E7FFF704FD0099411A23
:1020300041F28830814264D830688007F4D50EE0E0
:10204000FFF7F8FC009007E0FFF7F4FC0099411A55
:1020500041F28830814254D830688007F4D42FB1DF
:10206000DAF8001021F08051CAF80010A869C0B356
:10207000DBF80010C1F3810102294AD0022848464A
:1020800007D0C8F86000FFF7D5FC00E039E005464E
:102090003AE04746C8F86000FFF7CCFC064604E08B
:1020A000FFF7C8FC801B02282BD820688001F7D4DA
:1020B000D5E907010843A96A1C4A490802EB014116
:1020C0006A6A41EA8211084395F82C1040EA0161DE
:1020D0001148001F016001203866FFF7ABFC054680
:1020E00005E014E0FFF7A6FC401B022809D8206891
:1020F0008001F7D50BE000BFFFF79CFC401B0228D6
:1021000002D90320BDE8F88F20688001F4D40020B4
:10211000F8E70120F6E700000838024000380240E6
:1021200000004742800E4742007000400000FFFF61
:102130004FF0E0210428086903D020F00400086172
:10214000704740F00400FAE710B5401EB0F1807F00
:1021500001D3012010BD4FF0E02460610F21601712
:1021600000F0A6FF0020A06107202061002010BD24
:102170007047704730B590F83820012A20D00122EE
:1021800080F83820022380F8393003685C6824F036
:1021900070045C6003685C680D682C435C600368D5
:1021A0009C6824F080049C6003689C6849680C4328
:1021B0009C6080F83920002180F83810084630BD36
:1021C000022030BD10B5040003D094F8390010B1DE
:1021D00007E0012010BD002084F83800204600F000
:1021E0000DF8022084F83900211D206801F04AF81A
:1021F000012084F83900002010BD000008B50068F7
:102200000649884208D10648016841F08001016012
:10221000006800F08000009008BD0000001C004035
:10222000403802400168CA6842F00102CA60006892
:10223000016841F00101016000207047704770B5EE
:102240000446006801694FF00005C943890715D4A9
:10225000C168C943890711D4E91E016101202076B4
:10226000206880698007204602D0FFF7E7FF04E07E
:1022700000F0C0F8204600F05FF92576206801697B
:10228000C943490717D4C168C943490713D46FF03C
:1022900004010161022020762068806910F4407FEB
:1022A000204602D0FFF7CAFF04E000F0A3F8204662
:1022B00000F042F9257620680169C943090716D460
:1022C000C168C943090712D46FF0080101610420F5
:1022D00020762068C0698007204602D0FFF7AEFF55
:1022E00004E000F087F8204600F026F92576206803
:1022F0000169C943C90617D4C168C943C90613D4C3
:102300006FF010010161082020762068C06910F488
:10231000407F204602D0FFF791FF04E000F06AF80A
:10232000204600F009F9257620680169C943C907EC
:1023300008D1C168C943C90704D1891E016120467B
:1023400000F018F920680169C943090609D4C16879
:10235000C943090605D46FF0800101612046FFF7EB
:1023600007FF20680169C943490609D4C168C94308
:10237000490605D46FF040010161204600F004F9E0
:1023800020680169C94389060BD4C168C94389061D
:1023900007D46FF0200101612046BDE87040FFF7CF
:1023A000E8BE70BD00B502680020022185B0B2F120
:1023B000804F0FD00C4B9A420AD103220092CDE9F4
:1023C0000110CDE903010948694600BFFFF750FA43
:1023D00005B000BD0091CDE90110039001200490EB
:1023E00069460348F2E70000000400400004024090
:1023F00000000240704770B5044690F838000D4662
:1024000001280DD0012684F83860022084F83900B4
:1024100042B1042A18D0082A2AD00C2A4DD139E01A
:10242000022070BD206800F099FF2068816941F0AA
:10243000080181612068816921F0040181612068BF
:1024400081692A69114311E0206800F0B3FF206818
:10245000816941F4006181612068816921F48061B2
:102460008161206881692A6941EA0221816124E051
:10247000206800F0D1FF2068C16941F00801C16106
:102480002068C16921F00401C1612068C1692A691D
:10249000114311E0206800F0EFFF2068C16941F4AA
:1024A0000061C1612068C16921F48061C161206857
:1024B000C1692A6941EA0221C16184F839600020BA
:1024C00084F8380070BD10B5040003D094F83900CA
:1024D00010B107E0012010BD002084F8380020462C
:1024E00000F00CF8022084F83900211D206800F06B
:1024F000C9FE012084F83900002010BD08B501682C
:102500000B48B1F1804F0BD00A4A914207D10168C4
:1025100041F002010160006800F00200009008BD77
:10252000016841F001010160006800F00100F5E779
:1025300040380240000400407047000010B50446D7
:102540000068012200F0FEFE08492068884202D09F
:102550000749884203D1416C41F40041416420683D
:10256000016841F001010160002010BD0000014040
:102570000004014000680349884201D1FFF760BAB6
:1025800070470000004401407047704770B5026812
:1025900004461068D168536910F00F0F50D003F053
:1025A000010501F4907635435DD0C20705D0CA0518
:1025B00003D5E26B42F00102E263420705D5DA0778
:1025C00003D0E26B42F00202E263820705D5DA072C
:1025D00003D0E26B42F00402E263020705D5DA079A
:1025E00003D0E26B42F00802E263E26B002A33D0D0
:1025F000800604D5880602D5204601F029F8206817
:102600004069E16BC0F38010090700D428B320466D
:1026100001F010F82068416949061AD5416921F096
:1026200040014161606BA0B11B490165606BFEF721
:102630009CFF002810D0606B016DBDE8704008471A
:10264000830610D58B060ED52046BDE8704000F0FD
:10265000FFBF2046FFF799FF70BD2046FFF795FFAB
:102660000020E06370BD030606D50B0604D52046A6
:10267000BDE8704001F088B94006F3D54806F1D5B1
:10268000D168204621F04001D160202184F8391022
:1026900000F00BFA70BD00002536000870B504008C
:1026A00004D094F83900002510B106E0012070BD77
:1026B00084F83850204600F023F8242084F83900AC
:1026C0002068C16821F40051C160204601F006F87D
:1026D0002068016921F4904101612068416921F07D
:1026E0002A0141612068C16841F40051C160E5637D
:1026F000202084F8390084F83A00002070BD0000E2
:102700002DE9F04F0546D0F800C00220DFF86082C6
:10271000DFF86092012103220723DFF85CB2002476
:102720008706460287B0C4453DD1D9F8008048F0FD
:102730001008C9F80080D9F800C00DF104080CF0A9
:10274000100CCDF814C04FF4C06CCDF800C088E870
:102750000F0069465846FFF78BF8DFF82482874957
:102760004046C8F80010C0E90174C0E90346C8F843
:102770001440C8F81840C8F81C40C8F82040C8F8F1
:102780002440FEF7D5FF18B1B8217EA001F091F9E1
:10279000C5F83480002205212520C8F83850FFF7FD
:1027A000F9F9252046E0DFF8EC81DFF8C8A1C4453F
:1027B000AAF1040A43D1DAF8008048F40038CAF8D4
:1027C0000080DAF800C00DF104080CF4003CCDF8EC
:1027D00014C04FF00C0CCDF800C088E80F0069461B
:1027E0005846FFF745F8DFF898816B4908F1600813
:1027F0004046C8F80010C0E90174C0E90346C8F8B3
:102800001440C8F81840C8F81C40C8F82040C8F860
:102810002440FEF78DFF18B1E5215AA001F049F9D7
:10282000C5F83480002205212620C8F83850FFF76B
:10283000B1F92620FFF7A2F907B0BDE8F08FDFF865
:102840005C81C4455AD1DAF8008048F48028CAF87F
:102850000080DAF800C00DF104080CF4802CCDF8EB
:1028600014C04FF4406CCDF800C088E80F006946F2
:102870004B48FEF7FDFFDFF80881474908F1C00823
:1028800060394046C8F80010C0E90174C0E9034649
:10289000C8F81440C8F81840C8F81C40C8F82040D0
:1028A000B946C8F82440FEF743FF20B14FF48971C0
:1028B00034A001F0FEF838483A4FC5F8348030387B
:1028C000C8F83850E7E80209402051C7354847F8B2
:1028D0001449BC61FC613C627C62FEF729FF20B1B7
:1028E0004FF4927127A001F0E4F82F630022052134
:1028F0002720BD63FFF74EF927209BE72A4B9C4515
:102900009AD1D9F8007047F02007C9F80070D9F8BB
:10291000003001AF03F020030593C023009387E844
:1029200007000820049069462048FEF7A1FF1D4FCC
:1029300012486037183838608005C7E90104C7E9D4
:1029400003467C61BC61FC613C6238467C62FEF7F8
:10295000EFFE20B140F251110AA001F0AAF86F6316
:10296000002205214720BD63FFF714F9472061E7E6
:102970000010014044380240000002404064024020
:102980005C0300202E2E2F5372632F7573617274B7
:102990002E63000000440040886002400048004070
:1029A000000402407C0400200014014000080240A2
:1029B00070472DE9F843044690F839001F46164643
:1029C0000D46202850D1A5B19EB194F838000128B9
:1029D0004AD0012084F838004FF00008C4F83C8049
:1029E000212084F83900FFF725F8A6848146E68483
:1029F00026E00120BDE8F883E08C401EE084A0685A
:102A00004B46B0F5805F4FF000024FF0800120464A
:102A1000009703D000F0E9FFE8B90DE000F0E5FF12
:102A2000C8B928882168C0F308004860206908B147
:102A30006D1C05E0AD1C03E0216815F8010B486032
:102A4000E08C0028D8D14B46002240212046009738
:102A500000F0CBFF08B10320CCE7202084F8390038
:102A600084F838800020C5E70220C3E790F83930A9
:102A7000202B18D1A9B1A2B190F83830012B12D077
:102A800001628284C2840021C163212280F839203E
:102A900080F838100068C16841F08001C1600020F2
:102AA000704701207047022070477047FEE7000022
:102AB00006480749427C0A70428D4A80B0F81720C8
:102AC0008A80B0F81900C88070470000341E0020CA
:102AD00018100020144890ED021A80ED031AD0ED72
:102AE000050AD0ED011A70EEA10AC0ED060AD0ED7C
:102AF000001A30EEA12AC0EE821A30EE412AB0EE62
:102B0000410AB7EE001AC0ED081A31EE611A01EE63
:102B1000820A61EE200A80ED040AC0ED070AC0EDCA
:102B2000050A80ED020A70477C160020104810B597
:102B30000E4901600621416000214FF4003281609E
:102B4000C0E90312120142610176012242768176C8
:102B5000C17601774177FEF74DFB002805D0BDE82F
:102B60001040502103A000F0A4BF10BD006400403D
:102B7000580100202E2E2F5372632F63616E2E6337
:102B800000000000104810B50E49016006214160A8
:102B900000214FF400328160C0E90312120142614A
:102BA0000176012242768176C17601774177FEF780
:102BB00021FB002805D0BDE81040662103A000F0ED
:102BC00078BF10BD00680040800100202E2E2F53DA
:102BD00072632F63616E2E63000000001D4808B50C
:102BE000016841F480010160016801F480010091F5
:102BF000016841F4001101600068002200F4001037
:102C0000009005210C20FEF7C5FF0C20FEF7B6FF53
:102C1000002205210E20FEF7BDFF0E20FEF7AEFFBD
:102C2000002205211020FEF7B5FF1020FEF7A6FFB9
:102C3000002205213920FEF7ADFF3920FEF79EFF67
:102C4000002205213A20FEF7A5FFBDE808403A2002
:102C5000FEF794BF3038024030B5A3B004F0A8FCB2
:102C6000374D0022012128681E901EA803F062FB48
:102C7000344C00220121606168681F901FA803F096
:102C800059FBA061A86820900022012120A803F030
:102C900051FBE061E86821900022012121A803F0A6
:102CA00049FB2062286922900022012122A803F01A
:102CB00041FB2061142205F114016846FDF70FFB6A
:102CC0000021684603F01FFB6062142205F1280111
:102CD00005A8FDF704FB002105A803F014FB206004
:102CE000142205F13C010AA8FDF7F9FA00210AA80F
:102CF00003F009FB142205F150010FA8FDF7EFFACC
:102D000000210FA803F0FFFAE060142205F164012E
:102D100014A8FDF7E4FA002114A803F0F4FA6060A7
:102D2000142205F1780119A8FDF7D9FA002119A894
:102D300003F0E9FAA06004F05BFC23B030BD0000B2
:102D40009C8B0008040000202DE9F0432F4887B039
:102D50000024016841F080010160016801F08001F8
:102D60000591016841F001010160016801F0010174
:102D70000591016841F002010160016801F0020162
:102D80000591016841F008010160016801F0080146
:102D90000591016841F00401016000681C4F00F0DA
:102DA00004004FF470650590012229463846FEF76D
:102DB0003BFEDFF860804FF400460022314640467B
:102DC000FEF732FEDFF850900022C0214846FEF7A1
:102DD0002BFE00950125CDE9015469463846039440
:102DE000FEF746FD0096CDE901546946404603943E
:102DF000FEF73EFDC0200090CDE9015469464846EB
:102E00000394FEF735FD07B0BDE8F083303802408B
:102E1000000C024000000240000402400C4810B5C3
:102E20000A49016053214160002144F61F62C0E954
:102E300002120161FFF7C6F9002805D0BDE8104075
:102E4000932104A000F035BE10BD0000001C00401E
:102E5000200200202E2E2F5372632F74696D2E6373
:102E60000000000010B519488AB04FF080410160A1
:102E700053210024C0E9011444F61F61C0E9031482
:102E8000FFF721FB18B14A2111A000F012FE0794B0
:102E900007A90E480894FFF76DF918B151210CA04D
:102EA00000F007FE6020CDE9000402940422694688
:102EB00006480494FFF79FFA18B15A2104A000F0C5
:102EC000F8FD0248FFF76EFA0AB010BDA801002015
:102ED0002E2E2F5372632F74696D2E630000000035
:102EE00010B520488AB01E49016053210024C0E972
:102EF000011444F61F61C0E90314FFF7E4FA18B1A6
:102F00006D2119A000F0D5FD079407A91548089474
:102F1000FFF730F918B1742113A000F0CAFD60204A
:102F200000904FF44870CDE90104082269460D482D
:102F30000494FFF760FA18B17D210BA000F0B9FDF1
:102F40000C2269460748FFF756FA18B1822106A0FD
:102F500000F0AFFD0348FFF725FA0AB010BD0000EE
:102F600000040040E40100202E2E2F5372632F74C2
:102F7000696D2E63000000000D4810B50B4901601B
:102F80000C494160002181600C22C160C0E904123B
:102F90008161C161FFF782FB002805D0BDE81040C8
:102FA000552105A000F085BD10BD000000100140B6
:102FB0005C020020A08601002E2E2F5372632F7515
:102FC000736172742E6300000D4810B50B490160E7
:102FD0004FF4E1314160002181600C22C160C0E901
:102FE00004128161C161FFF759FB002805D0BDE8DB
:102FF0001040682103A000F05CBD10BD00440040FB
:103000009C0200202E2E2F5372632F7573617274F1
:103010002E6300000D4810B50B4901604FF4E131FB
:103020004160002181600C22C160C0E9041281610D
:10303000C161FFF733FB002805D0BDE810407B21BC
:1030400003A000F036BD10BD00480040DC020020A7
:103050002E2E2F5372632F75736172742E630000CE
:103060000D4810B50B4901604FF4E131416000217A
:1030700081600C22C160C0E904128161C161FFF767
:103080000DFB002805D0BDE810408E2103A000F004
:1030900010BD10BD001401401C0300202E2E2F5324
:1030A00072632F75736172742E630000FEE77047C0
:1030B0000907090E002806DA00F00F0000F1E020F1
:1030C00080F8141D704700F1E02080F8001470476C
:1030D00030B4034C4466034C846630BC03F062BADF
:1030E000A5650008B365000810B50446C0682061F6
:1030F00003F03BF8E06094ED010AD4ED020AB4EE6F
:10310000600AF1EE10FA17D0B4EEE00AF1EE10FA10
:1031100013D22169D4ED001A401A01EE100AB8EE5C
:10312000411A01EE810A84ED010AB4EEE00AF1EEE3
:1031300010FA01DDC4ED010A10BDFDDD2169D4EDF9
:10314000001A401A01EE100AB8EE411A01EEC10A47
:1031500084ED010AB4EEE00AF1EE10FAECD2BDEE15
:10316000E00A10EE100A00B200EE100AB8EEC00A33
:1031700084ED010A10BD642002F0E4FFFBE703F0D8
:10318000B8B8000030B5254893B00025016841F07B
:1031900080510160006800F0805011902048016863
:1031A00041F4804101600068022400F480401190E5
:1031B00001200090000401908001CDE90640042028
:1031C0000890A820CDE9090407200B906846FEF777
:1031D00021FE00B1FEE70CA90F2081E831004FF479
:1031E000A0500F904FF48050109005210CA8FEF7CE
:1031F00003FD00B1FEE7FEF7B7FD4FF47A71B0FBB7
:10320000F1F0FEF7A1FF0420FEF792FF00220F214C
:10321000501EFEF7BFFC13B030BD00004038024026
:10322000007000401048016841F4700101600F48CF
:10323000016841F0010101600C4A0021083211606F
:1032400002680B4B1A400260031D0A4A1A600268AA
:1032500022F48022026005480C30016002495806C1
:10326000803908607047000088ED00E000380240B7
:10327000FFFFF6FE103000240148FEF7E0BF00001B
:103280003C050020F0B50268234B244D244E254F09
:10329000254C4FF0804C984209D0604507D0A84299
:1032A00005D0B04203D0B84201D0A04204D122F0F0
:1032B000700E4A6842EA0E0298421BD0604519D04F
:1032C000A84217D0B04215D0B84213D0A04211D0B6
:1032D000164DA8420ED0164DA8420BD0154DA8424F
:1032E00008D0154DA84205D0144DA84202D0144D67
:1032F000A84203D122F44075CA682A4302608A6852
:10330000C2620A688262984201D0A04201D1096972
:10331000016301214161F0BD000001400004004053
:1033200000080040000C0040000401400040014043
:10333000004401400048014000180040001C0040CB
:103340000020004010B50123046A8B409C430462B6
:10335000036A8A401343036210BD000030B5026A5D
:1033600022F001020262026A436884690D6824F057
:103370007304254322F002048A6822430B4CA042C6
:1033800002D00B4CA0420BD122F00804CA6823F4EF
:10339000407322434C6922F004021C438B6923438F
:1033A0004360856149684163026230BD00000140AD
:1033B0000004014030B5026A22F010020262026A83
:1033C000436884690D6824F4E64444EA05248D6862
:1033D00022F0200242EA05120D4DA84202D00D4D06
:1033E000A8420ED1CD6822F0800242EA05124D6952
:1033F00023F4406343EA85038D6922F0400243EAE7
:1034000085034360846149688163026230BD0000C6
:10341000000001400004014030B5026A22F48072CD
:103420000262036A4268C46923F4007324F07305DE
:103430000C682C438D6843EA05230D4DA84202D049
:103440000C4DA8420ED1CD6823F4006343EA052356
:103450004D6922F4405242EA05128D6923F48063DB
:1034600042EA05124260C4614968C163036230BD2B
:10347000000001400004014030B5026A22F480528D
:103480000262046A4268C3690D6823F4E64343EAB2
:1034900005238D6824F4005444EA0534084DA842FD
:1034A00002D0084DA84204D14D6922F4804242EA7C
:1034B00085124260C36149680164046230BD000046
:1034C00000000140000401402DE9F041FFF7F0FA4F
:1034D000324C334D26785EB300223249DFED320A9A
:1034E00032484FF47A73012E02D0022E2ED120E002
:1034F0002F4EF7887688BE1B642E01DA227025E0F5
:103500002A69426094ED020ABDEEC00A80ED020A0B
:1035100010EE100A801A984218DA0868984215D9F5
:1035200094ED030A30EE200A84ED030A84ED020ACA
:103530000CE00968994209D31E49097C31B1017830
:1035400021B102708178C9438170E9E795ED040AE1
:103550001948B8EEC00A84ED040AD4ED030A02F05B
:1035600029FFB5F9040000EE100A1348B8EEC00AAE
:1035700084ED060AD0ED0F0A1048C4ED050A02F0EA
:1035800019FF0E480E4990ED0F0ABDEEC00A10EE6D
:10359000100AA1F87400BDE8F08100004C11002071
:1035A000E00600203C04004000FB0F4770000020B4
:1035B00018100020F81D0020E81800202C1A002008
:1035C000D410002010B5DFED120AB1EE000A2DED87
:1035D000028B43F698239FED0D8A46F66052032135
:1035E000B0EE481A0B48FFF773FDB0EE481ABDEC79
:1035F000028BC823BDE81040DFED070A9FED070AE4
:103600004FF4875203210648FFF762BD0000000017
:103610000AD7A33B2C1A00206F12833A9A99993E3D
:10362000E818002010B5806B0021C185C184FEF729
:10363000ACFF10BD0168CA6822F49072CA600168CC
:103640004A6922F001024A61202180F83A1070474D
:1036500010B590F83A10222901D0022010BD8168DF
:10366000B1F5805F11D00169002901681FD0496858
:1036700001F07F03816A4A1C82620B70C18D491E72
:103680000904090CC18518D026E00269816A002A64
:103690000268526805D0D2B20A80816A491C8162F0
:1036A000ECE7C2F308020A80816A891CF7E74A68DE
:1036B000816A4B1C83620A70E0E70168CA6822F4E1
:1036C0009072CA6001684A6922F001024A612021B1
:1036D00080F83A10FFF76CF9002010BD2DE9F04199
:1036E00004460068016921F44052E1681143016118
:1036F0002168C86849F20C6290432369A268E569B1
:103700001A4363692B431A430243CA60216848691C
:1037100020F44072A06910434861E1696425B1F565
:10372000004F9748974A21684FF032083FD09142A6
:1037300001D081427CD1FEF72DFB00EBC00101EBF3
:10374000001061688900B0FBF1F6FEF723FB00EB87
:10375000C00101EB001061688900B0FBF1F0B0FB23
:10376000F5F06FF01801484306EB800108EB0110FB
:10377000B0FBF5F000F0F006FEF70CFB00EBC0012B
:1037800001EB001061688900B0FBF1F0B0FBF5F0CF
:1037900006EB0016FEF7FEFA00EBC00101EB00108D
:1037A00061688900B0FBF1F7FEF7F4FAD2E09142CC
:1037B00001D081423DD1FEF7EDFA00EBC00101EBF3
:1037C000001061684900B0FBF1F0B0FBF5F00601B4
:1037D000FEF7E0FA00EBC00101EB00106168490060
:1037E000B0FBF1F7FEF7D6FA00EBC00101EB0010D9
:1037F00061684900B0FBF1F0B0FBF5F06FF0180123
:10380000484307EB800108EBC100B0FBF5F000F086
:10381000F80006EB4006FEF7BDFA00EBC00101EB35
:10382000001061684900B0FBF1F7FEF7B3FA3CE025
:1038300055E0FEF79FFA00EBC00101EB0010616854
:103840004900B0FBF1F0B0FBF5F00601FEF792FA8B
:1038500000EBC00101EB001061684900B0FBF1F71B
:10386000FEF788FA00EBC00101EB00106168490027
:10387000B0FBF1F0B0FBF5F06FF01801484307EB37
:10388000800108EBC100B0FBF5F000F0F80006EB9A
:103890004006FEF76FFA00EBC00101EB0010616813
:1038A0004900B0FBF1F7FEF765FA00EBC00101EB50
:1038B000001061684900B0FBF1F0B0FBF5F06FF06B
:1038C0001801484307EB800108EBC100B0FBF5F09D
:1038D00000F00700216830448860BDE8F081FEF701
:1038E00049FA00EBC00101EB001061688900B0FBF0
:1038F000F1F6FEF73FFA00EBC00101EB0010616842
:103900008900B0FBF1F0B0FBF5F06FF0180148430F
:1039100006EB800108EB0110B0FBF5F000F0F006BB
:10392000FEF728FA00EBC00101EB00106168890086
:10393000B0FBF1F0B0FBF5F006EB0016FEF71AFA5B
:1039400000EBC00101EB001061688900B0FBF1F7EA
:10395000FEF710FA00EBC00101EB0010616889006E
:10396000B0FBF1F0B0FBF5F06FF01801484307EB46
:10397000800108EB0110B0FBF5F000F00F00A9E7A3
:10398000001401400010014090F83910212901D0A5
:10399000022070478168B1F5805F016A0BD04A1C34
:1039A0000262026809785160C18C491E0904090C41
:1039B000C1840ED017E009880268C1F30801516084
:1039C00001690029016A02D0491C0162ECE7891CE7
:1039D000FBE70168CA6822F08002CA600068C1681B
:1039E00041F04001C160002070472DE9F041984648
:1039F00017460E460446069D1DE0681C1BD02DB1DF
:103A0000FEF718F8A0EB0800A84214D92068C16896
:103A100021F4D071C1602068416921F00101416148
:103A2000202084F8390084F83A00002084F8380017
:103A30000320BDE8F0812068006836EA000004D069
:103A40000020B842D9D00020F3E70120F9E70000B8
:103A500010B50448FEF79AFDBDE81040014803F098
:103A60002BBC00005C02002010B50448FEF78EFD60
:103A7000BDE81040014803F01FBC00009C0200207C
:103A800010B50448FEF782FDBDE81040014803F080
:103A900013BC0000DC02002010B50448FEF776FDE0
:103AA000BDE81040014803F007BC00001C030020E3
:103AB000FEE7FEE703B401984100009850EAC120F8
:103AC00018BF04204A0D18BF40F0010040F2FF72F9
:103AD000B2EB515F08BF40F00200012808BF05208B
:103AE00002B070474100080218BF04200A0E18BF38
:103AF00040F001004FF07F4232EA010108BF40F080
:103B00000200012808BF05207047000010B54FF0E3
:103B10000E402DED028BB0EE408A18EE104A00EBFD
:103B20004400B0F1506F4AD84FF0FC40B0EB440F66
:103B300022D2B0EEC80AF7EE000A30EEC00AF6EE66
:103B4000000A60EE208A18EE900A03F0CFFA01EE28
:103B5000100A14F0004F1DBFDFED2D0A9FED2D0A56
:103B6000B1EE411ADFED2C0A08BF9FED2C0AF8EEEA
:103B7000001A21EE218A05E0DFED290A68EE088AA5
:103B8000B0EE600A9FED271ADFED271A30EE080A23
:103B900048EE811A9FED251A08EEA11ADFED241ACE
:103BA00048EE811A9FED231A08EEA11A68EE281A32
:103BB000BDEC028B01EE810A30EE200A10BD4FF001
:103BC000E440B0EB440F0CD918EE100AFFF78AFF5F
:103BD000042808BF00F042FEB0EE480ABDEC028B9C
:103BE00010BD4FF07F40B0EB440F07D2B0EE480A53
:103BF000BDEC028BBDE8104000F022BE012000F0B9
:103C000045FEBDEC028BBDE8104000F01FBE000079
:103C10000000C9BF22AAFDB90000C93F22AAFD3990
:103C20000000000024FE1C3DC78AD83C1E67383DBA
:103C30001B93993DAFAA2A3E10EE100A10B510EE64
:103C4000901A4FF0684202EB40032DED028BB3F166
:103C5000654F3CBF02EB4102B2F1654F7CD200BF21
:103C6000C0F3C753C1F3C7529A1A1B2A09DD10F0DB
:103C7000004F14BF9FED6E0A9FED6E0ABDEC028BE4
:103C800010BD12F11A0F1BDA11F0004F09D010F01D
:103C9000004F0CBF9FED680A9FED680ABDEC028BD8
:103CA00010BD80EE208A18EE100AFFF71BFF0428D3
:103CB00008BF00F0D3FDB0EE480ABDEC028B10BD8A
:103CC0004200B2EB410F37D910F0004F19BFDFEDC2
:103CD0005C1A9FED5C1ADFED5C1A9FED5C1AB0EE8A
:103CE000602A0A46F1EE400A80F00041B0EE420A36
:103CF00010460A1A5200B2F1807F34D2484010F0C8
:103D0000004FDFED532A9FED533A1DBFBEEE002A50
:103D100071EEE21A31EE431AB6EE002A04BF71EEDC
:103D2000A21A31EE031AF0EE402A42EE602A40EE6B
:103D3000020A82EEA02A18E011F0004F04BF9FEDA6
:103D4000461AF0EE411AD4D010F0004F1CBFDFED40
:103D5000431A9FED431A00E026E004BFDFED411A4D
:103D60009FED411AC5E780EE202A22EE020ADFED20
:103D70003F0ADFED3F2ABDEC028B40EE202ADFED4B
:103D80003D0A40EE220ADFED3C2A40EE202ADFED1C
:103D90003B0A40EE220A22EE000A00EE201A31EE23
:103DA000020A30EE210A10BD4FF07F42B2EB400F05
:103DB00028BFB2EB410F05D2BDEC028BBDE810402D
:103DC00000F041BD40EA01035B0008BF41F0FF4144
:103DD0000BD0B2EB400F08BFB2EB410F08D120F07F
:103DE000804000EE100A21F0804100EE901A37E783
:103DF000B2EB400F12BF5FEA410240F0FF4001F01A
:103E000000413FF42DAF4A0092EA40033FF528AF4E
:103E1000002AACBF9FED1A1A9FED1A1A20EE010A74
:103E200060EE810A10EE100A10EE901A18E70000FA
:103E3000DB0FC9BFDB0FC93FDB0F4940DB0F49C0B8
:103E40000000C9BF22AAFDB90000C93F22AAFD395E
:103E50000060ED3EC30ACE3700000000000049C0FC
:103E600022AA7DBA0000494022AA7D3A2DAD65BD47
:103E70008FB8D53D0FB511BE61C84C3EA8AAAABEE9
:103E80000000804F0000802F10B52F499FED2C1BA4
:103E90002DED020B84B0059820F000408842D8BF79
:103EA0009DED040B2DDD2949884209D1049840B9C4
:103EB0004FF0010000F0EAFC00F0A2FC06B010BDDB
:103EC00005DB9DED040B00F08FFC06B010BD6846CD
:103ED0009DED040B00F0A0F810F0030004BF9DED71
:103EE000021B9DED000B0CD001280ED09DED021B96
:103EF0009DED000B022817D0012000F0DDFB06B07D
:103F000010BD00F0A5FA06B010BD9DED021B9DEDA1
:103F1000000B012000F0D0FB51EC100B81F00041B0
:103F200006B041EC100B10BD00F092FA51EC100BF2
:103F300081F0004106B041EC100B10BD0000000004
:103F40000000000000000000FB21E93F0000F07FBE
:103F500010B52F499FED2C1B2DED020B84B0059859
:103F600020F000408842DCBF00209DED040B32DDD4
:103F70002849884209D1049840B94FF0010000F067
:103F800085FC00F03DFC06B010BD05DB9DED040B8B
:103F900000F02AFC06B010BD68469DED040B00F051
:103FA0003BF810F0030011D0012818D09DED021B42
:103FB0009DED000B02281AD000F04AFA51EC100BCC
:103FC00081F0004106B041EC100B10BD9DED021BCD
:103FD0009DED000B012000F06FFB06B010BD9DEDC4
:103FE000021B9DED000B00F033FA06B010BD01205E
:103FF00000F062FB51EC100B81F0004106B041EC87
:10400000100B10BD000000000000000000000000C8
:10401000FB21E93F0000F07F2DE9F14F04462DED33
:10402000020B2DED088B8AB09FEDE70B80ED020BA4
:10403000139EE74826F0004585420ADC9DED120BF1
:10404000002084ED000B0AB0BDEC088B03B0BDE886
:10405000F08FE0489FEDE0AB9FEDE1BBA84247DD6C
:10406000E14F9FEDE39B9FEDE48B9DED120B53EC35
:104070001A2B51EC100B002E1CDDFCF7F5F941EC6E
:10408000100BBD4208D053EC1B2B51EC100BFCF76E
:10409000EBF9C4E900010BE053EC192B51EC100BC8
:1040A000FCF7E2F953EC182BFCF7DEF9C4E9000148
:1040B0000120C8E7FCF737F941EC100BBD4208D0EE
:1040C00053EC1B2B51EC100BFCF72DF9C4E900014C
:1040D0000BE053EC192B51EC100BFCF724F953ECCB
:1040E000182BFCF720F9C4E900014FF0FF30AAE7D4
:1040F000C348A84279DB9DED120B51EC100B01F087
:1041000059F841EC180B9FEDC00B53EC102BFCF74A
:10411000B1F99FEDBF1B53EC112BFCF704F9FCF731
:10412000C8FB0746FCF718FA41EC190B53EC1A2BA5
:10413000FCF7A0F953EC182BFCF799F941EC180B9C
:1041400053EC1B2B51EC190BFCF794F9DFF8C8A2C8
:1041500041EC100B4FEA15580125FA4453EC102B93
:1041600051EC180BFCF780F9032DC4E900013DD098
:10417000C1F30A5005EB4511A8EB0000113981424B
:1041800034DA0AEB051BB0EE48AA9BED000BF0EE0B
:1041900068AA53EC102B51EC190BFCF76BF941ECAE
:1041A0001B0B51EC1A0B53EC1B2BFCF75DF941EC8C
:1041B000180B51EC1A0B53EC182BFCF755F953EC78
:1041C0001B2BFCF751F99BED020B41EC1A0B53EC46
:1041D000102B51EC190BFCF74DF953EC1A2BFCF793
:1041E00043F941EC100B6D1CB8E70EE0002EA8BFA0
:1041F0003846BFF628AF94ED000B51EC100B81F060
:104200000041C4E9000178421DE7C6F3130040F401
:10421000801EC6F30A50A0F2F530471100F01F05CA
:10422000C5F12000DDF848B0089000200690079006
:104230000520EC467949002D07EB0002794408BFC0
:1042400051F8221009D051F8223001EB8201AB4025
:104250004A68089922FA01F11943A1FB0E26A1FB35
:104260000B131A449A4234BF0123002303EB0608C0
:104270000CEB8003D3E901A60E448E4234BF01212A
:10428000002192448A4411B1924502D903E092453B
:1042900001D2012100E00021C3E901A641444CF80C
:1042A0002010011EA0F10100C4DC029800F10050B2
:1042B000850F0298DDE903678000DDF81480FCF7C4
:1042C0004BF941EC1A0B3046FCF757F99FED541BA4
:1042D00053EC112BFCF7CEF841EC1B0B3846FCF7E6
:1042E0004CF99FED511B53EC112BFCF7C3F841EC3B
:1042F000180B4046FCF741F99FED4D1B53EC112B79
:10430000FCF7B8F841EC190B51EC180B53EC192BD6
:10431000FCF709F853EC1B2BFCF705F853EC1A2BB0
:10432000FCF701F8CDE90801002008909DED080B8D
:1043300053EC1A2B51EC100BFCF796F853EC1B2B9B
:10434000FCF792F853EC182BFCF78EF853EC192B72
:10435000FCF78DF89FED381B53EC112BFCF78AF816
:104360009FED370B41EC180B53EC102B9DED080B18
:1043700051EC100BFCF77EF853EC182BFBF7D3FF36
:104380009FED310B41EC180B53EC102B9DED080BFE
:1043900051EC100BFCF76EF853EC182BFBF7C3FF36
:1043A00041EC100B139810F0004F06D06D4251EC09
:1043B000100B81F0004141EC100B284684ED000BFE
:1043C00041E60000000000000000000000000000C6
:1043D000FB21E93F7CD9024000004054FB21F93F1A
:1043E0003163621A61B4D03DFB21F93F0000000047
:1043F0000000601A61B4D03D7370032E8A19A33B8C
:10440000FB2139410000000083C8C96D305FE43FE3
:10441000000000000000E03F1A4E0000684D000060
:10442000000000000000103E000000000000103CF2
:10443000000000000000103A182D4454FB21F93D03
:104440003326A611460B113C00000054FB21F93D18
:1044500010B52DED040B2DED088B82B0B0EE419A16
:10446000F0EE619A0B9820F000449FED4BABB4F155
:10447000795F11DA9DED0A0B51EC100BFCF719FA7C
:10448000002801BFB0EE4A0AF0EE6A0A02B0BDECA5
:10449000088B04BF04B010BD9DED0A0B53EC102B2C
:1044A00051EC100BFBF7E6FF41EC180B3C480621E2
:1044B000B0EE480AF0EE680A784400F081F853EC58
:1044C000182B51EC100BFBF7D5FF9DED0A0B41ECBF
:1044D0001B0B53EC192B51EC100BFBF7CBFF41ECF2
:1044E000190B53EC1B2B51EC180BFBF7C3FF53ECD0
:1044F000192BFBF7B9FF9FED2C0B41EC190B53EC7B
:10450000102B51EC180BFBF7B5FF41EC100B2848B2
:10451000844210DA53EC192B51EC100BFBF7A4FF7B
:1045200053EC1A2BFBF7A3FF41EC100B02B0BDECD0
:10453000088B04B010BD1F48A042BCBF9FED1E1BDE
:104540008DED001B06DBA4F500100190002000900B
:104550009DED001B51EC100B53EC112BFBF784FF6E
:104560009DED000B41EC180B53EC102B51EC1A0B8A
:10457000FBF77AFF41EC1A0B53EC192B51EC180B9B
:10458000FBF772FF53EC1A2BFBF771FF41EC100B9A
:10459000CCE7000000000000000000000000F03F39
:1045A0008C4A000000000000000000000000E03F16
:1045B0003333D33F0000E93F000000000000D23F4A
:1045C00070B504462DED028B4D1E00EBC500B0EE1C
:1045D000408AF0EE608A90ED000B35F0060017D0AF
:1045E00053EC182B51EC100BFBF744FF41EC100B74
:1045F0006D1E04EBC50090ED001B51EC100B53EC4D
:10460000112BFBF790FE41EC100B35F00600E7D1C3
:10461000022D36D0042D1CD0062D1CBFBDEC028B04
:1046200070BD53EC182B51EC100BFBF723FF94EDEE
:104630000A1B53EC112BFBF776FE53EC182BFBF700
:1046400019FF94ED081B53EC112BFBF76CFE41ECAA
:10465000100B53EC182B51EC100BFBF70BFF94EDE8
:10466000061B53EC112BFBF75EFE53EC182BFBF7EC
:1046700001FF94ED040B53EC102BFBF754FE41ECBF
:10468000100B53EC182B51EC100BFBF7F3FE94EDD1
:10469000021B53EC112BFBF746FE53EC182BFBF7D8
:1046A000E9FE94ED001B53EC112BFBF73CFEBDEC37
:1046B000028B41EC100B70BD31B504462DED040B9F
:1046C0002DED0A8BB0EE41BAF0EE61BA0B989DED7C
:1046D0000A0B20F00040B0F1795F0DDA51EC100BBD
:1046E000FFF7E8F9042808BF00F09AF89DED0A0BDF
:1046F000BDEC0A8B05B030BD53EC102B51EC100B08
:10470000FBF7B8FE41EC180B9DED0A0B53EC182B90
:1047100051EC100BFBF7AEFE41EC190B2C48B0EE40
:10472000480AF0EE680A05217844FFF749FF9FED3B
:104730002ACBB0EE40AAF0EE60AA9CB353EC1C2B3F
:1047400051EC190BFBF796FE41EC1C0B53EC1A2BAA
:1047500051EC190BFBF78EFE9FED210B41EC190B71
:1047600053EC102B51EC1B0BFBF784FE53EC192B75
:10477000FBF77AFE53EC182BFBF77CFE53EC1B2B5C
:10478000FBF772FE53EC1C2BFBF76EFE9DED0A1B34
:1047900053EC112BFBF76BFEBDEC0A8B05B041EC23
:1047A000100B30BDFFE753EC1A2B51EC180BFBF745
:1047B00061FE53EC1C2BFBF7B6FD53EC192BFBF7FA
:1047C00059FE9DED0A1B53EC112BFBF7ACFDE3E703
:1047D0001449000000000000495555555555C5BF06
:1047E000000000000000E03F10B553EC102B51EC2E
:1047F000100BFBF798FD41EC100B10BD0000000002
:104800009FED050B10B553EC102B51EC100BFBF783
:10481000E1FF41EC100B10BD0000000000000000A3
:104820009FED050B10B553EC102B51EC100BFBF763
:1048300021FE41EC100B10BD000000000000001034
:1048400030EE000A704730EE200A7047DFED020AB2
:1048500080EEA00A70470000000000009FED020AF1
:1048600020EE000A704700000000001002E008C8B7
:10487000121F08C1002AFAD170477047002001E0DA
:1048800001C1121F002AFBD17047000001490860D6
:10489000704700005401002030EE201AD0ED001ABD
:1048A000F4EEC11AF1EE10FA02DCB0EE611A01E08A
:1048B00080ED001A30EEC00AB4EEC01AF1EE10FA24
:1048C00001D280ED000A704730B50C4605000CD0CF
:1048D000022C0AD90548A11E0288284600F032FDA4
:1048E000291901F8020D000A487030BDD2000020DD
:1048F00030B50C4605000AD0022C08D9601E81B2E2
:10490000FF22284600F034FD291901F8010C30BDC2
:1049100010B501F06BFB6420FCF798FF0748FCF72B
:10492000F1FD02210548FCF74FFA0548FCF7EAFDC6
:10493000BDE8104002210248FCF746BA58010020A9
:10494000800100200EB54FF0FF342246CC2168468E
:1049500001F0A4FCF9E700000848C07C8107084882
:1049600008D58178002904D0002181704178C9439D
:10497000417070470121817070470000F81D0020D0
:104980008000002070B51B489FED180B1A4D0024C5
:104990002DED028B43F698269FED188A80ED020BD1
:1049A00004EBC400F0EE480A00EB400005EB800089
:1049B000B0EE601AB0EE080A324633460321FEF725
:1049C00087FB641C042CEBDBF0EE480ABDEC028B89
:1049D000B0EE601ABDE87040B2EE040A4FF4FA730C
:1049E0004FF4965203210648FEF772BB6666666670
:1049F0006666E63F80000020481C002000000000A2
:104A0000CC16002000B53A4A3A49DFED3B2A907CAB
:104A100091ED011A91ED000AC30702D0F0EE621A7F
:104A20001FE083073348D0ED010AF1EE601AD0EDA4
:104A3000000AF1EE600A02D5B0EE621A13E02F48C8
:104A400090ED012AB5EEC02AF1EE10FA02DDF0EE8B
:104A5000621A08E0B5EEC02AF1EE10FA08D2B0EE04
:104A6000621AF0EE400AB7EE000A244802F078FA23
:104A7000907C020708D591ED010ADFED210AF0EEE6
:104A8000621A20EE201A27E0400708D591ED010AAE
:104A9000DFED1C0AB0EE621A60EE201A0CE0174837
:104AA000143090ED010AB5EEC00AF1EE10FA08DDFF
:104AB00091ED011AF0EE621A91ED000AF1EE400A52
:104AC0000CE0B5EEC00AF1EE10FA0FD291ED010A3A
:104AD000B0EE621AF1EE401AD1ED000A0748B7EEC7
:104AE000000A14305DF804EB02F03ABA00BD000091
:104AF000F81D0020C8000020000000000C1E00204F
:104B00009A99193F9A9919BF2DE9F047FE482DED62
:104B1000088B00789FEDFD8ADFEDFD8AFD4DDFF803
:104B2000F8A3DFF8F8939FEDFEBAFE4C08280FD2E9
:104B3000DFE800F0040E0EE10EE80F0F02F038FD82
:104B400084ED008A84ED018A84ED028A02F050FD32
:104B500092E1F548F649F74A4378F4484FF00008E7
:104B6000012B7DD09FEDF40A80ED000A9FEDF30A42
:104B700081ED000A82F80080FFF744FF94ED0E0AF1
:104B800020EE280A84ED0F0A10EE100AFBF71BFD39
:104B900041EC100BFFF7DCF9E94EB0EE409AF0EE75
:104BA000609A96ED010AB1EE400A10EE100AFBF78A
:104BB0000AFD53EC192BFBF75DFC41EC190BE06B84
:104BC000FBF701FD41EC100BFFF75EF9DD4FB0EE96
:104BD00040AAF0EE60AA7868FBF7F5FC53EC1A2BBC
:104BE000FBF748FC53EC192BFBF79DFBFBF7FEFC96
:104BF0002060E06BFBF7E7FC41EC100BFFF744F99A
:104C0000B0EE409A96ED010AF0EE609AB1EE400ADD
:104C100010EE100AFBF7D7FC53EC192BFBF72AFC1C
:104C200041EC1A0BE06BFBF7CEFC41EC100BFFF7ED
:104C30008FF9B0EE409AF0EE609A7868FBF7C3FC0B
:104C400053EC192BFBF716FC53EC1A2BFBF70CFC5F
:104C5000FBF7CCFC606000F0C7F9B5F86C0000E031
:104C60002AE0BAF804105546C1EB011100EB4100EF
:104C700000B2A0868AF80380B9F80010B0EE4B1A93
:104C800000EE101AF8EE400A00EE100AB8EEC00A64
:104C900000F082F984ED0E0AFFF75EFE6878B0B18D
:104CA0009FEDA90AA94884ED020A417C012922D07E
:104CB000407C02281FD0DFE09FEDA50A80ED000AAE
:104CC0009FEDA40A012081ED000A107054E7B4F9A9
:104CD0003400D4ED0E0A00EE100AB8EEC00A70EEF1
:104CE000200A00EE100A9C48B8EEC00A01F062FBF0
:104CF000B1EE400AD6E784ED008A84ED018A84EDA6
:104D0000028AB9E094ED0E0A20EE280A84ED0F0A1B
:104D100010EE100AFBF757FC41EC100BFFF718F9E7
:104D20008E4EB0EE408ABAEE04AAB6F90000F0EE5C
:104D3000608A00EE100AB8EEC00A20EE0A0A10EEF1
:104D4000100AFBF740FC53EC182BFBF793FB41ECEC
:104D5000190BE06BFBF737FC41EC100BFFF794F8F5
:104D6000B6F90200B0EE408AF0EE608A00EB8000F7
:104D7000FBF7F2FB53EC182BFBF77CFB53EC192BE6
:104D8000FBF7D1FAFBF732FC2060E06BFBF71BFC72
:104D900041EC100BFFF778F8B6F90000B0EE408A4E
:104DA00000EE100AF0EE608AB8EEC00A20EE0A0AA1
:104DB00010EE100AFBF707FC53EC182BFBF75AFB1D
:104DC00041EC180BE06BFBF7FEFB41EC100BFFF71F
:104DD000BFF8B6F90200B0EE409AF0EE609A00EB30
:104DE0008000FBF7B9FB53EC192BFBF743FB53ECAB
:104DF000182BFBF739FBFBF7F9FB6060B9F80000F3
:104E00004E4600EE100AB4F93400B0EE4B1AF8EE3C
:104E1000400A00EE100AB8EEC00A00F0BDF8504893
:104E200084ED0E0A007801286CD0B5F86C00B0EE65
:104E30004B1A00B2A086318800EE101AF8EE400A34
:104E400000EE100AB8EEC00A00F0A6F884ED0E0AD3
:104E5000B4F9340000EE900AF8EEE00A70EE800A31
:104E600000EE100A3C48B8EEC00A01F0A3FAB1EE19
:104E7000400A00BF84ED020A9AF90100394900EEA8
:104E8000100AB8EEC00A10EE100A8860294801F036
:104E900093FB24482749143094EC030A01F000F8EE
:104EA00031490020C0EB001204EB400301EB820209
:104EB000401C9288C0B29A810428F3D32B4F00255E
:104EC00004EB4506B6F9140000EE100AB6F90C0022
:104ED000F8EEC00A00EE100A05EBC50000EB40003A
:104EE000B8EEC00A07EB800001F064FABDEEC00A1C
:104EF0006D1C042D10EE100AB083E1DB1C48E16943
:104F0000016037E041E00000900000200000000058
:104F10002416493AD410002080000020A406002066
:104F200000F8FF4594100020AC000020C8000020CD
:104F3000CC000020DC0F00200000484200E0C44507
:104F4000201E00200C1E00200000FA454C160020F8
:104F50000000C84200C05A46CC160020F81D0020B0
:104F600092000020821E002078050020481C0020AE
:104F70003C160020216A4160054880210068BDEC94
:104F8000088BBDE8F04701F05BB99FED020A71E7BD
:104F90000400002000007A4570EE601AB4EEE00ACA
:104FA000F1EE10FA0EDDB6EE000A21EE000AF4EE84
:104FB000C01AF1EE10FA02DD31EEC10A7047B0EE10
:104FC000610A70470BD2BEEE000A21EE000AF4EE31
:104FD000C01AF1EE10FAF2D231EE810A70479FED5D
:104FE000010A704700000000104811494FF000030B
:104FF000807C800618D5084691F90020B0F904009D
:10500000012A02D02AB10AD00BE01E2807DA401C80
:1050100003E010F11E0F04DD401E888070470B7006
:1050200070470120087070478B807047F81D002082
:1050300080000020FFB5BFB0074648A890E85200A6
:1050400004F10F0085B2BDF80001ADF80400BDF811
:105050000401ADF80600BDF80801ADF808002246CD
:105060000DF10A00FBF73BF91EA8A41D0090A2B2A7
:10507000334601A9384601F031FBA52E04D12A465A
:105080001EA9024800F009F943B0F0BD84130020C6
:105090002DE9FC470446C66800680D466A46406B29
:1050A00001A9006800F074F95DB99DF80400BDF82D
:1050B00000100028208902D0C1EB400000E0401A17
:1050C000E082E18AA08A0027204D4FF0010881424A
:1050D00023D22289C0EB4202114429600FFA82F9DF
:1050E00081194A46606800F0D8F8484502D0C5F8F2
:1050F000048000E06F60B946A782B4F916703146AB
:105100003A46606800F0C9F8B84202D0C5F8048099
:1051100001E0C5F80490E08A15E0091A0FFA81F958
:10512000296081194A46606800F0B7F8484502D006
:10513000C5F8048000E06F602189E08A4900B0FB77
:10514000F1F201FB1200A082BDE8FC879C00002068
:10515000406880B27047014600200968090300D505
:10516000012070477047704711494A8852BA8280BF
:105170008A8852BAC2800288428009884BBA03806A
:10518000991A8268B1F5805F04DD521EA1F50051C5
:10519000826006E011F5805F03DA521C01F50051D0
:1051A0008260C16103EB4231828A891A01617047D2
:1051B0004900002082B0CDE9000121F000400190BB
:1051C0009DED000B02B051EC100B704770B504461A
:1051D000002CFDD04FF0FF31A06900F0FDFF207DD5
:1051E0002268411CC9B22175155CE068B1FBF0F280
:1051F00000FB12102075A068401CA0602069401EB2
:105200002061A06900F0C0FF284670BD2DE9F04183
:1052100016460F4604460025002CFDD04FF0FF3106
:10522000A06900F0D9FF002015E0217D23684A1C09
:105230002275595C3954217DE2686D1CB1FBF2F393
:1052400002FB13112175A168EDB2491CA16021690F
:10525000491E401C2161B04202DA21690029E4D1D3
:10526000A06900F091FF2846BDE8F0810028FDD03C
:105270000029FDD0002AFDD083615BB1016011449B
:10528000491EC260C0E9011200210161017541752A
:10529000084670474FF0FF3070472DE9F041174640
:1052A0000E4604460025002CFDD04FF0FF3126B1FC
:1052B000A06900F091FF002019E00846BDE8F081E8
:1052C000627DD4F800C0335C511C61750CF802306B
:1052D000617DE268401CB1FBF2F302FB13116175C2
:1052E000A168491EA1602169491C6D1C2161B84259
:1052F00002D2A1680029E3D1A06900F045FF284649
:10530000DCE70028FDD00069704700000C484088A9
:10531000012808D003280DD0042807D005280DD176
:105320004FF4967004E04FF4CD7001E04FF4AF708D
:10533000014601E000210846FBF7EEBC7047000083
:105340004C11002010B558B1084C491E0BD310F871
:10535000013B5340DBB234F8133083EA1222F4E706
:105360004FF6FF7010BD104610BD0000408D0008C4
:1053700010B5064C04E000BF10F8013B5340E25C5E
:10538000491E89B2F8D2104610BD0000408C0008BA
:1053900070B514460D460646FFF7DDFE2870304610
:1053A000FFF7D6FE208070BD0249098849BA018006
:1053B00081827047490000200A4800210A4A037A86
:1053C0000A48012B04D0022B04D0032B08D106E09D
:1053D000052300E00623037092F8302002B9017023
:1053E00001F0DABEF81D0020A80F00209000002078
:1053F00070B5454C4349B2B0D4ED120A94ED0A0A97
:1054000040B1012823D0414E414D02283AD0032813
:1054100061D144E0B1F90600DFED3E1A01EE100A59
:10542000B8EEC11A41EE210A9FED3B1AC4ED120AF3
:10543000B1F9040000EE900AF8EEE00A00EE810AED
:1054400084ED0A0A00F0FCFDFEF73EF843E0B1F9F6
:105450000C00FEEE001A01EE100AB8EEC11A41EE81
:10546000210A9FED2E1AC4ED120AB1F90A0000EECE
:10547000900AF8EEE00A00EE810A84ED0A0A00F0D4
:10548000DFFD28E06C22264917A8FAF728FF5C22E6
:1054900024496846FAF723FF224810380BE06C22B3
:1054A000214917A8FAF71BFF5C2220496846FAF742
:1054B00016FF1E4810380FC802F0E8FA3088A16EB7
:1054C000401A00EE100AB8EEC00A84ED120A95EDFB
:1054D000020A84ED0A0A164890ED0F0AB1EE400A5E
:1054E000BDEEC00A10EE100A24F8700F114890EDBE
:1054F0000F0AB1EE400ABDEEC00A10EE100A60803D
:1055000032B070BDF81D0020D410002068060020C5
:10551000A80F0020CDCCCC3C6F1203BA0AD7A3BC95
:10552000041B0020A81A0020DC1B0020801B002088
:10553000C0190020541900202DE9F04178212DEDEB
:10554000048B5048FAF7E4FE9FED4F8A4FF49675AE
:105550004FF4FA76B0EE481AF0EE480AB0EE480A78
:105560002B46324603214948FDF7B2FD41F288340B
:10557000B0EE481AF0EE480AB1EE080A2B46224671
:1055800003214348FDF7A4FDB0EE481ADFED418A40
:10559000B0EE080A40F6AC53F0EE680A224603214A
:1055A0003D48FDF795FD770043F69828B0EE481A80
:1055B000DFED3A0AB1EE040A3B4642460321384881
:1055C000FDF786FDB0EE481ADFED360AB1EE000AAF
:1055D0003B46424603213448FDF77AFDB0EE481AB7
:1055E000F0EE480A9FED310A2B464246032130482F
:1055F000FDF76EFDB7EE001AF0EE480A9FED2D0A9A
:105600002B46324603212C48FDF762FDB0EE481AC6
:10561000F0EE680AB3EE0E0A234646F66052032106
:105620002648FDF755FD9FED279AB0EE481ADFEDAD
:10563000240AB0EE490AC8234CF250320321224812
:10564000FDF746FDB0EE481AF0EE680AB0EE490AE2
:10565000C823424603211D48FDF73AFD094840F69C
:1056600002019FED1B0A816641F69021C16681808F
:1056700080ED070A9FED170A80ED0A0ABDEC048B46
:10568000BDE8F081D41000200000000010180020B8
:1056900038170020CDCCCC3D5419002017B7513815
:1056A000981A00206F12033A701B00200000484334
:1056B0007C180020CDCC4C3FA4170020C01900203E
:1056C0000AD7233C0000C842041B0020DC1B00203A
:1056D00000200045000034432DE9F0412C4F2D4DB2
:1056E000387840B99FED2C0A2C4985ED130A91EDCD
:1056F000020A85ED0A0A0026082838D2DFE800F001
:1057000004370D300D0D113301F052FFA5F8706014
:10571000A5F87260A5F8746027E001F049FF002049
:105720001BE001F045FF1E481E4C407C012801D1C2
:10573000207C30B10120FFF75BFE84F82860E66230
:1057400013E0607C30B1607C012805D0607C0228C9
:1057500002D00AE0022000E00320FFF749FE04E047
:1057600001F026FFF8E701F023FF01F041FF0E49A9
:10577000387808700D48296F8160B5F87410818100
:105780000B4840210068BDE8F04100F059BD000021
:1057900090000020D410002000000000A80F00207E
:1057A000F81D00204C160020910000203C1600201F
:1057B000040000202DE9F041C94DCA4CA0F201407F
:1057C0002DED048B05282F68AE88237849D2DFE8B9
:1057D00000F049A4D4FB0300287860F30513000906
:1057E00060F34303A878A4F86000E978607861F377
:1057F0000400490961F347106070287960F30003E1
:10580000C3F34200237005280BD2DFE800F0030643
:1058100014171A009FEDB40A01E09FEDB40A84ED5D
:10582000190AC3F3011078B1012810D0022811D051
:10583000032816D111E09FEDAE0AF0E79FEDAD0A07
:10584000EDE79FEDAD0AEAE79FEDAC0A07E09FEDBB
:10585000AC0A04E09FEDAB0A01E09FEDAB0A84EDDA
:105860001A0AB4E0D8079FEDA98A26D0062923D1C9
:105870009C480A469A491C30FAF731FDB4F91C00DD
:1058800000EE100AB8EEC00A20EE080A84ED090AFC
:10589000B4F91E0000EE100AB8EEC00A20EE080AA5
:1058A00084ED0A0AB4F9200000EE100AB8EEC00A2E
:1058B00020EE080A84ED0B0A89E008292CD10A465B
:1058C0008749A01CFAF70BFDB4F9020000EE100A9C
:1058D000B8EEC00A20EE080A84ED030AB4F9040009
:1058E00000EE100AB8EEC00A20EE080A84ED040AA1
:1058F000B4F9060000EE100AB8EEC00A20EE080A5D
:1059000084ED050AB4F9080000EE100AB8EEC00AEA
:1059100020EE080A84ED060A59E02763A686B4F94A
:10592000300000EE100AF8EEC00A94ED190A60EE9D
:10593000800AC4ED110AB4F9320000EE900A30B2C8
:10594000F8EEE00A60EE800AC4ED120A00EE900A5A
:10595000F8EEE00A20EE800A84ED130AA879E979CE
:10596000C00040EA5110A4F85E00B0F5806F2ED35D
:10597000A0F50060A4F85E0029E0C4F836706687E0
:10598000B4F9360000EE100AF8EEC00A94ED1A0AD7
:1059900060EE800AC4ED140AB4F9380000EE900AF3
:1059A00030B2F8EEE00A60EE800AC4ED150A00EEAF
:1059B000900AF8EEE00A20EE800A84ED160AE888E4
:1059C000A4F85C0003E0FFE7E763A4F8406094ED0F
:1059D000030A94ED041AD4ED061A60EE000AB6EE3E
:1059E000009A20EE210AD4ED051A41EE010A01EEDB
:1059F000210A70EEC90AFEF71FF9DFED458AC0EEF5
:105A0000280A9FED448A444DB0EE480A00EE880A09
:105A100085ED020A94ED030AD4ED050A94ED061A09
:105A200020EE200AD4ED040A00EEC10AF0EE000ACE
:105A300020EE200AFEF76AF8C0EE280A20EE880A57
:105A400085ED000A94ED030A94ED061AD4ED041ACC
:105A500060EE000A20EE210AD4ED051A41EE010A9B
:105A600001EE810A70EEC90AFEF7E6F8C0EE280AD8
:105A700020EE880A85ED010AB4F9300000EE100A24
:105A8000B8EEC00A85ED030AB4F9320000EE100A40
:105A9000B8EEC00A85ED040AB4F9340000EE100A2D
:105AA0001E48B8EEC00A85ED050A94ED140A85ED8E
:105AB000060A94ED150A85ED070A94ED160A85EDA0
:105AC000080A95ED030A80ED030A95ED050A80EDBD
:105AD000020A012085F83000BDEC048BBDE8F0819E
